:030000000204A156
:0C04A100787FE4F6D8FD75812702048AFC
:100472003F065B4F666D7D077F6F777C395E7971D2
:08048200FEFDFBF7EFDFBF7F79
:1003F300C292C282D291D280D290D281C295C2A33C
:10040300D294D283D293D284C287D285C2867F10FC
:020413007E2742
:10041500D3EF9400EE940040147D207C03ED1D7015
:0D042500011CED4C70F7EF1F70E61E80E328
:0104320022A7
:10048A0020B30FC292C282C295C2A3C287120411BC
:07049A0080EE12000380E96F
:08043300AD1BAC1AAF17AE16A9
:10043B008E268F27ED90048193FF120457E52790AA
:0C044B00047293FF120457D2C4C2C422F2
:10024A00D293C295D294D283D2A3C284D287C285D2
:10025A00D286AE0EAF0F7C007D0A12039E8C228DD1
:10026A0023AE0EAF0F7C007D0A12039E8E188F19E3
:10027A00AE10AF117C007D0A12039E8C088D09AE68
:10028A0010AF117C007D0A12039E8E1C8F1DAE12C8
:10029A00AF137C007D0A12039E8C0A8D0BAE12AF3F
:1002AA00137C007D0A12039E8E1E8F1FAE14AF159B
:1002BA007C007D0A12039E8C0C8D0DAE14AF157C4A
:0A02CA00007D0A12039E8E208F2192
:1002D40075240075257DE5251525AE2470021524A9
:1002E4004E700302039D751A00751B01851816854F
:1002F40019171204337F017E00120415751A007554
:100304001B028522168523171204337F017E0012F7
:100314000415751A00751B03851C16851D17120418
:10032400337F017E00120415751A00751B048508BD
:10033400168509171204337F017E00120415751AFD
:1003440000751B05851E16851F171204337F017E59
:1003540000120415751A00751B06850A16850B17FD
:100364001204337F017E00120415751A00751B07F1
:100374008520168521171204337F017E001204158F
:10038400751A00751B08850C16850D171204337F2A
:09039400017E001204150202DAD8
:01039D00223D
:10000300750E00750F3F751000751133751200756D
:10001300131B75140075151BE5134512604620B3B9
:10002300051203F380F2D290D292C291D280C2829F
:10003300D281D293D295C294D283C2A3D284120224
:1000430056E50F150F7002150EE511151170021507
:1000530010E513151370021512E515151570B91572
:100063001402001B750E00750F247510007511180E
:10007300751200751303751400751503E513451206
:10008300604620B3051203F380F2C290D292D2915C
:10009300D280C282D281C293D295D294D283C2A398
:1000A300D284120256E50F150F7002150EE51115D5
:1000B3001170021510E513151370021512E51515CD
:1000C300157002151402007F750E00750F2175104F
:1000D30000751115751200751359751400751559AE
:1000E300E5114510604C20B3051203F380F2D29062
:1000F300C292D291D280C282D281D293C295D2943B
:10010300D283C2A3D284D287D285C28612025CE58F
:100113000F150F7002150EE511151170021510E57C
:1001230013151370021512E5151515700215140237
:1001330000E3750E00750F0C7510007511417512F3
:1001430000751344751400751544E50F450E603AA8
:1001530020B3051203F380F2D290C292D291D280DF
:10016300C282D28112024AE50F150F7002150EE505
:1001730011151170021510E513151370021512E510
:100183001515157002151402014D750E00750F3506
:1001930075100075113575120075133875140075D7
:1001A3001538E50F450E603A20B3051203F380F2CC
:1001B300D290C292D291D280D282C28112024AE5F7
:1001C3000F150F7002150EE511151170021510E5CC
:1001D30013151370021512E5151515700215140287
:1001E30001A5750E00750F037510007511037512C7
:1001F30000751303751400751503E50F450E60466E
:1002030020B3051203F380F2D290C292D291C2803E
:10021300D282D281D293C295D294C283D2A3D28402
:10022300120256E50F150F7002150EE51115117028
:10023300021510E513151370021512E51515157047
:070243000215140201FD2267
:10045700C2B7E4FEEF30E704D2C58002C2C5D2C2FC
:0A046700C2C2EF25E0FF0EBE08EA56
:010471002268
:10039E00BC000BBE0029EF8DF084FFADF022E4CC43
:1003AE00F875F008EF2FFFEE33FEEC33FCEE9DEC0C
:1003BE00984005FCEE9DFE0FD5F0E9E4CEFD22ED52
:1003CE00F8F5F0EE8420D21CFEADF075F008EF2F9C
:1003DE00FFED33FD4007985006D5F0F222C398FD8D
:0503EE000FD5F0EA222A
:00000001FF
